:020000040800F2
:100000001051002059020008FD1C00086D1C00085A
:10001000F91C0008211000089523000800000000CA
:10002000000000000000000000000000E9200008BF
:100030002510000800000000F91E0008ED2000084F
:1000400073020008730200087302000873020008BC
:1000500073020008730200087302000873020008AC
:10006000730200087302000873020008730200089C
:10007000730200087302000873020008730200088C
:1000800073020008730200087302000800000000F9
:1000900000000000000000000000000073020008E3
:1000A000730200087302000873020008730200085C
:1000B000730200087302000873020008730200084C
:1000C000730200087302000873020008730200083C
:1000D00073020008730200087302000800000000A9
:1000E0007302000873020008730200080000000099
:1000F0000000000000000000000000007302000883
:100100000000000073020008730200087302000878
:1001100000000000000000000000000000000000DF
:1001200073020008730200087302000873020008DB
:100130007302000800000000000000000000000042
:100140000000000000000000000000007302000832
:1001500073020008730200087302000873020008AB
:100160007302000873020008000000000000000095
:10017000000000000000000000000000000000007F
:1001800000000000730200080000000000000000F2
:10019000730200087302000800F002F800F04DF846
:1001A0000AA090E8000C82448344AAF10107DA45D2
:1001B00001D100F042F8AFF2090EBAE80F0013F0D7
:1001C000010F18BFFB1A43F0010318473C3E000023
:1001D0005C3E0000103A24BF78C878C1FAD85207B4
:1001E00024BF30C830C144BF04680C6070470000B1
:1001F0000023002400250026103A28BF78C1FBD830
:10020000520728BF30C148BF0B607047662903F012
:100210005D84002070471FB503F04BFC9DE8030090
:1002200000F094FA00F014FD04000020002103F017
:10023000B3FBE0601FBD10B510BD00F03EFE1146DF
:10024000FFF7E9FF02F052FE00F05CFE03B4FFF797
:10025000F2FF03BC02F0A0F80948804709480047B4
:10026000FEE7FEE7FEE7FEE7FEE7FEE7FEE7FEE766
:10027000FEE7FEE704480549054A064B70470000C3
:100280009D21000899010008100100201051002054
:100290001041002010410020704770B5A0FB0140C4
:1002A000B4F1805170F1000024BF002070BD2046E1
:1002B00000F007F805001CBF214600F0DEF92846D3
:1002C00070BD70B5064600F025FA056806F10B0012
:1002D00020F00704B4429CBF002070BD2B466A6822
:1002E000BAB11068A04210D304F1080188423CBFA3
:1002F0005068586007D35168101941601168091B94
:10030000016058601460101D70BD13465268002AC9
:10031000E7D12146284600F005FA0028DED170BD5D
:1003200053EA020C00F069802DE9F04B4FF0000613
:10033000002B1FBFB3FA83F503FA05F424FA05F680
:100340005E4012BF1643B2FA82F502FA05F4C5F117
:1003500020051EBF22FA05FC44EA0C04203556EAAB
:10036000044C4FEA144418BF641C4FF000084FF0CF
:100370000009904271EB030C39D3002919BFB1FA7F
:1003800081F701FA07F6B0FA80F700FA07F6C7F12D
:1003900020071EBF20FA07FC46EA0C062037B6FBF2
:1003A000F4FCA7EB0507103F07F01F0BCBF120066D
:1003B0002CFA06F60CFA0BFB44BFB3460026202F9E
:1003C000A4BF5E464FF0000B5BEA060C08BF4FF07F
:1003D000010B19EB0B0948EB0608ABFB027C06FB93
:1003E00002CC0BFB03CCC01B71EB0C01C1E70B462D
:1003F000024641464846BDE8F08B13B5084318BF96
:100400004FF0FF300146AFF30080BDE81C4070475D
:100410000FB4044910B503AA029800F003FC10BC05
:100420005DF814FB740000202DE9F05F8946044656
:100430004FF0000ADFF824B1FB44C0F820A02046AA
:10044000E168884700287DD0252806D0D4E901211D
:100450009047206A401C2062F1E700255F46204655
:10046000E16888472028064607DB312E05D2B819F7
:1004700010F8200C08B10543F1E7A80701D525F0D5
:100480000405C4F81CA00027C4F818A02A2E09D01F
:10049000304603F079FA38B304EB8708303EC8F8E9
:1004A000186019E059F8041B204604EB870291619B
:1004B000E1688847012F064618D1E069002820DA54
:1004C00025F020051DE0D8F8180000EB800006EBB1
:1004D00040003038C8F818002046E16888470646D2
:1004E00003F052FA0028EED1012F0AD02E2E08D1A7
:1004F0002046E16888477F1C0646022F45F020050C
:10050000C4DBA069002803DA404245F00105A06180
:10051000E80701D025F01005A6B1A6F14100192881
:1005200002D8203645F400654A463146204625600B
:100530004D46FFF76BFE60B1012807D0ED1D25F099
:10054000070000E007E000F1080978E705F1040979
:1005500075E730467AE7206ABDE8F09F94360000E0
:1005600010B5044603E002F0BFFC401C09D014F8AB
:10057000010B05490028F6D1BDE810400A2002F021
:10058000B3BC4FF0FF3010BD74000020032A40F2CE
:10059000308010F0030C00F0158011F8013BBCF125
:1005A000020F624498BF11F801CB00F8013B38BF3D
:1005B00011F8013BA2F1040298BF00F801CB38BF4B
:1005C00000F8013B11F0030300F02580083AC0F069
:1005D000088051F8043B083A51F804CBA0E8081011
:1005E000F5E7121D5CBF51F8043B40F8043BAFF344
:1005F0000080D20724BF11F8013B11F801CB48BF9E
:1006000011F8012B24BF00F8013B00F801CB48BFD3
:1006100000F8012B704710B5203AC0F00B80B1E80C
:100620001850A0E81850B1E81850A0E81850203A27
:10063000BFF4F5AF5FEA027C24BFB1E81850A0E830
:10064000185044BF18C918C0BDE810405FEA827C4A
:1006500024BF51F8043B40F8043B08BF7047D20761
:1006600028BF31F8023B48BF11F8012B28BF20F802
:10067000023B48BF00F8012B70474FF000020429ED
:10068000C0F0128010F0030C00F01B80CCF1040CC1
:10069000BCF1020F18BF00F8012BA8BF20F8022BF5
:1006A000A1EB0C0100F00DB85FEAC17C24BF00F89B
:1006B000012B00F8012B48BF00F8012B70474FF0C9
:1006C000000200B5134694469646203922BFA0E8A2
:1006D0000C50A0E80C50B1F12001BFF4F7AF0907AE
:1006E00028BFA0E80C5048BF0CC05DF804EB89009F
:1006F00028BF40F8042B08BF704748BF20F8022BE2
:1007000011F0804F18BF00F8012B704770477047F9
:1007100070477047004870471800002070477047C6
:100720007047704738B504460A4600206946AFF363
:100730000080002808BF38BD02460099204600F01E
:100740008BFA012038BD012000F0B0BBF8B5AFF343
:100750000080054600200C46102000BF0646A81960
:10076000A0420DD9324669460020AFF30080070051
:1007700008BF00F09BFB0098A04218BF0546C419B3
:10078000FFF7C8FF05600746F01D20F00700461977
:10079000284600F00AF8B44208BFF8BDA21B314653
:1007A0003868BDE8F84000F057BA00210160C0E9A0
:1007B000011070471020704770B50446051FFFF701
:1007C000A9FF0068002C14BF446870BD002C18BF3E
:1007D000AC423CBF20466468F8D301680A18AA42BC
:1007E00018BF456003D12A68054611440160286896
:1007F0004119A1421CBF6C6070BD616869602168CD
:100800000844286070BD2DE9FF4F0C461E464FF08E
:10081000FF378BB0D2E90001DDF860800A908A468C
:10082000C1F30A5505B93D46002108464FF00000C6
:10083000BAF1000F00F4400005DA00EB80004FF43D
:10084000400101EA50004FEA9059B9F1010F00DD73
:10085000B9460A9850EA4A000ED044F61050A5F264
:10086000FF3545432F14B8F1000F1ED07542291EE5
:100870001EDDC9F100021CE0B8F1010F4FF00000CD
:1008800001D0302103E0F24305E02154401CB04286
:10089000FBDB30460022002121540B99C1F808806F
:1008A000C1E900200FB0BDE8F08FBD1B6D1CDEE775
:1008B0004A4600DA694206A800F086FA06AB93E8D9
:1008C000070003AB83E8070050460A9902F07CFC5E
:1008D0008DE80700A0F500501F3800900398002D08
:1008E0000ADD42F21F014A460844002303A903908F
:1008F000684602F0E5FE09E0A0F500504A461F38C0
:10090000002303A90390684602F0EFFE8DE807007C
:100910000004000C03D04FF0FF30410800E0104607
:10092000B8F1000F03D00022009215461EE0751E9C
:1009300005D400F0ABF9303262556D1EF9D5B346DF
:100940000122084302D000227F1C04E020783028D6
:1009500001D100227F1E002A099784D01DE0112DAD
:1009600007DA00F093F9303262556D1C50EA01024B
:10097000F5D1084302D00098C8B10EE00021681EEE
:1009800005E0235C625C63542254401E491C814292
:10099000F7DBAB46A81B401E0990002004F80B00B3
:1009A0000B98099AC0F80880C0E9002B7AE7112655
:1009B0004FF0000857E72DE9F04F88460446D21D56
:1009C00022F0070191B0D1E90001CDE90A0102F05E
:1009D000C3FF02460B98C00F01D02D2007E020680E
:1009E000810701D52B2002E0202101EAC000032A63
:1009F000099001D0072A05DB03464146204600F056
:100A0000A3F90BE12078800601D5E06900E006201B
:100A1000B8F1650F814606D0B8F1660F18D0B8F16D
:100A2000670F70D131E00020B9F1110F009001DBA8
:100A3000112301E009F101030AAA01A90CA8FFF79B
:100A4000E2FEDDE90C70002609F10105834647E06E
:100A500001204B4600904FF000470AAA01A90CA8BC
:100A6000FFF7D1FEDDE90DB00C995D46002610B907
:100A700009F101000D18B9EB050003D4C0F1FF36F0
:100A800009F10105A5EB09002BE0B9F1010F01DA2D
:100A90004FF001090020B9F1110F0090484601DD27
:100AA000112300E003460AAA01A90CA8FFF7ABFE38
:100AB000DDE90C704D4600268346207800070AD4F5
:100AC000AB4500DA5D4601A8012D04DD411911F89E
:100AD000011C302907D04F4502DA17F1040F04DA60
:100AE000012082460FE06D1EEEE7002F02DCED1BB9
:100AF0003E4403E0781CA84200DD7D1CB81B00F1D9
:100B0000010A4FF000472078000703D4AA4501DB13
:100B10004FF0FF3A0021B7F1004F0DF143088DF877
:100B2000431024D002202B23002F01DA7F422D23F3
:100B30000A21021EA0F1010000DC5FB197FBF1FC6D
:100B400097FBF1F201FB1C7C17460CF1300C08F806
:100B500001CDEEE7A8F1010003702188090501D558
:100B6000452100E06521A0F1010800F8011C099869
:100B70000FA9A1EB0807FF1D00B10120411901EBEE
:100B8000EA70A1693844081A401EA0612078C006A6
:100B900002D42046AFF30080099828B1D4E901219E
:100BA0009047206A401C20622078C00622D520464B
:100BB000AFF300801EE0002E04DBB34502DD01A888
:100BC000805D00E03020D4E901219047206A401C7C
:100BD0002062761CAAF101005FEA000A0AD100F047
:100BE00037F8C0680168405CD4E901219047206A69
:100BF000401C2062281EA5F10105DCDC07E0D4E9D9
:100C0000012118F8010B9047206A401C2062381E11
:100C1000A7F10107F3DC2046AFF30080032011B0F9
:100C200041E60000074B70B50D467B4400F079F8B3
:100C30000446284602F054F910B14FF0FF3070BD61
:100C4000204670BDBB220000004870471000002005
:100C50000048704730000020034640688C4600285A
:100C600018BF88423CBF03464068F8D31868184450
:100C7000884207D00CF1030020F00700001D411A44
:100C8000521A0146081D0A60FFF796BD30B5B0F153
:100C90000A0271F100034FEA900E4EEA817EB0EB3A
:100CA0000E0061EB91014FEA101E4EEA017E10EB3F
:100CB0000E0041EB11114FEA102E4EEA016E10EBBF
:100CC0000E0041EB11214FEA104E4EEA014E10EB9F
:100CD0000E0041EB1141401841F100014FEAD000F4
:100CE00040EA41704FEAD1014FEA810444EA90742E
:100CF00010EB800544EB01046D1944EB0404521B16
:100D0000A3414FF0000348BF0A3200D530BD401C5C
:100D100041F1000130BD000001694A1C0261087800
:100D2000704700B58FB0CDE901310021059105492B
:100D30007944CDE9031011466846FFF775FB0FB003
:100D400000BD0000E5FFFFFF2DE9F0411F4604460E
:100D500003260168072A01F4006004DB08B116A528
:100D600005E016A503E008B115A500E015A521F0E2
:100D700010002060A069C01EA0610FB1401EA061DC
:100D80002046AFF300804FB1D4E9012138469047A7
:100D9000206A401C2062C01C206206E0206AFAE73C
:100DA000D4E9012115F8010B9047761EF8D22046B0
:100DB000AFF30080BDE8F0814E414E006E616E00E1
:100DC000494E4600696E66002DE9F0478146164699
:100DD0008AB0354878440DC88DE80D003248784413
:100DE000801C03AC0DC884E80D0041F69B3008441C
:100DF000372190FBF1F290FBF1F5A5F1800501FBA5
:100E000012041B3C02D56442012000E00020DFF800
:100E100098A080460027FA44AAF1BE0A0EE0E00737
:100E20000AD03246684607EB470101230AEB8101ED
:100E300002F05BFC8DE8070064107F1C002CEED1F3
:100E4000194F7F44AE3F19E0E80715D007EB0410B7
:100E50000DF1180A90E80E008AE80E00C068F04212
:100E600001D1981908903246012306A903A802F07F
:100E70003CFC03AB83E807006D10641C002DE3D13C
:100E80004FF0010332466946B8F1000F03A802D0C3
:100E900002F016FC01E002F028FCC9E90001C9F8E3
:100EA00008200AB0BDE8F087882D000010B500F0DA
:100EB00037F8BDE8104000F02EB87546FFF7C4FEC5
:100EC000AE4605006946534620F00700854618B037
:100ED00020B5FFF7CFF9BDE820404FF000064FF0F6
:100EE00000074FF000084FF0000BAC46ACE8C0091B
:100EF000ACE8C009ACE8C009ACE8C00921F00701C2
:100F00008D46704710B50446AFF300802046BDE81B
:100F10001040FFF79BB9002801D001F03DBA70479F
:100F200010B5012805D0002103A000F05FF80120D2
:100F300010BD09A1F8E7000053494752544D454DF3
:100F40003A204F7574206F662068656170206D656A
:100F50006D6F7279000000003A2048656170206D65
:100F6000656D6F727920636F72727570746564005D
:100F700030B44FF0013C50F8042B51F8043BCCFA4C
:100F800052F4D51A20D1FCB950F8042B51F8043B87
:100F9000CCFA52F4D51A17D1B4B950F8042B51F841
:100FA000043BCCFA52F4D51A0ED16CB950F8042B8C
:100FB00051F8043BCCFA52F4D51A05D1002CDAD002
:100FC00030BC4FF00000704729BAB1FA81F111F03E
:100FD0001801D1F120008440F2D1CA40CB4012F078
:100FE000FF0213F0FF0330BCD01A704770B50546FE
:100FF0000C460A2000E06D1C01F0D0F935B12878CC
:101000000028F8D102E0641C01F0C8F914B120787E
:101010000028F8D1BDE870400A2001F0BFB90000F7
:10102000FEE7000070470000EFF3108072B600BFCB
:10103000FEE70000B0B5044600F0E4F8054640F2D3
:101040000000C2F200000078611C18BF044400BF19
:1010500000F0D8F8401BA042FAD3B0BD2DE9F04F04
:1010600082B000F13E4241F2000502F1FF77C4F286
:101070000205072243F6004E4FEAB726A84208BFF2
:101080000422C4F2010E042E38BF4FEAB722012514
:10109000002600274FF00008009208E008F1010840
:1010A0000437B8F1100F06F1020600F0A7800C68B3
:1010B00005FA08F914EA090FF0D0D1F804B00322B8
:1010C0000BF0030CACF10104B240012C6FEA020AF0
:1010D00010D88268CC6802EA0A02B44022438260D7
:1010E0004268CBF3001422EA090204FA08F422430E
:1010F000426005E0BCF1030F02D14FF0030C20E089
:10110000C2688C6802EA0A02B4402243BCF1020FB2
:10111000C26016D16FF0030202EA58020244D2F80C
:1011200020C007F01C050F230C69AB402CEA030319
:1011300004FA05F52B431362D1F804B001250BF036
:10114000030C02680CFA06F302EA0A021A431BF4C3
:10115000403F0260A2D0002243F644030192C4F251
:1011600002031A684FF6084C42F480421A601A686B
:10117000CFF6FF7C02F480420192019A28F003022C
:10118000724452F80C3007F00C050F24AC40A34316
:10119000009C04FA05F52B4342F80C30DEF80820D9
:1011A0004B6842EA090543F60C4CDC0258BF22EAC0
:1011B0000905CEF80850C4F2010CDCF800209C02AE
:1011C00042EA090558BF22EA0905CCF80050DEF8CA
:1011D00004209C0342EA090558BF22EA0905CEF81B
:1011E0000450DEF80020DB0342EA090558BF22EA7A
:1011F0000905CEF80050012550E700BF02B0BDE858
:10120000F08F000040F20C10C2F20000006870473E
:1012100040F2000040F20C11C2F20000C2F20001E4
:1012200000780A68104408607047000080B543F6F3
:101230000040C4F20200016841F4007101600168DD
:1012400041F480610160016841F480710160032014
:1012500000F074F80F2000F005F800F027F80020E7
:1012600080BD000070B540F20006C2F2000640F2F8
:1012700008013278C2F200014FF47A730968B3FBB7
:10128000F2F20446B1FBF2F1084600F02FFB0F2CFE
:101290004FF0010508D838B94FF0FF302146002241
:1012A000002500F01FF87460284670BD82B0002051
:1012B00043F640010190C4F202014A6842F48042C0
:1012C0004A604A6802F480420192019A00900868DC
:1012D00040F080500860086800F08050009000984E
:1012E00002B0704710B54EF60C5CCEF2000CDCF884
:1012F0000030C3F3022E8EF00704042C28BF042410
:10130000BEF103034FF0FF3E0EFA04F438BF002392
:10131000A14399400EFA03F39A43114300F00F02E0
:1013200000F160430901043A03F564436244002874
:1013300048BF02F10C03197010BD00004EF60C51AD
:10134000CEF200010A684FF6FF031A4060F30A224A
:1013500042F0806040F0FD70086070472DE9F04178
:10136000002800F08B8043F60808C4F20208044607
:10137000D8F8F8030D4600F00700884207D288F835
:10138000F853D8F8F80300F00700A84276D1206897
:10139000810717D5410705D5D8F8001041F4E05171
:1013A000C8F80010010705D5D8F8001041F46041D5
:1013B000C8F80010D8F80010A26821F0F00111431D
:1013C000C8F80010C0073FD1D8F8F80300F00700B4
:1013D000A84207D988F8F853D8F8F80300F00700B6
:1013E000A8424BD12068410707D5D8F80010E26821
:1013F00021F4E0511143C8F80010000708D5D8F8CF
:101400000000216920F4604040EAC100C8F80000F3
:1014100000F07CF8D8F8001043F6C032C1F3031195
:10142000C0F60002515C40F2080220FA01F140F2DD
:101430000400C2F200000068C2F200021160FFF76F
:1014400011FF0020BDE8F0816068811E022907D2EB
:1014500058F8081C89015CBF0120BDE8F08111E04B
:10146000012807D158F8081C89035CBF0120BDE89A
:10147000F08107E058F8081C890703D40120BDE873
:10148000F08100BFD8F8001021F003010843C8F82C
:101490000000FFF7B7FE064641F28837D8F8000093
:1014A000616800F00C00B0EB810F8DD0FFF7AAFE51
:1014B000801BB842F2D90320BDE8F08140F2080059
:1014C00043F60801C2F20000C4F202010068096894
:1014D00043F6D032C1F38221C0F60002515CC8400D
:1014E0007047000040F2080043F60801C2F2000015
:1014F000C4F202010068096843F6D032C1F34231F8
:10150000C0F60002515CC8407047000010B543F6B9
:101510000404C4F20204606800F00C0008280BD038
:10152000042819BF42F20040C0F2F40047F6400020
:10153000C0F27D1010BD00BF2068216823684902F9
:1015400047F64001C0F27D1100F03F02C3F388105E
:101550005CBF42F20041C0F2F401A1FB0001002394
:10156000FEF7DEFE21680222C1F3014102EB4101D8
:10157000B0FBF1F010BD00002DE9F04182B0002871
:1015800068D00446007843F60006C007C4F202069D
:101590000BD0B06800F00C00042840F09F80306849
:1015A000800302D56068002854D0207880071AD5BF
:1015B000B06810F00C0F09D0B06800F00C000828DB
:1015C00040F0A6807068400200F1A2803068800779
:1015D00002D5E06801283DD13068216920F0F8008B
:1015E00040EAC10030602078000737D420784007F7
:1015F0004CD4A56955B3B06800F00C00082840F041
:10160000BB80012D26D07068E16900F480028A4217
:1016100020D1216A00F03F028A421BD147F6C071F7
:10162000626A0140B1EB821F14D1A16A4FF6FF73C9
:10163000C903994300F44032A1F580318A4209D1AF
:10164000E16A00F07060B0EB016F03D1002002B0DE
:10165000BDE8F081012002B0BDE8F081606900289A
:1016600040F20000C4F2472076D00121C0F8801E6D
:10167000FFF7C8FD054600BF706F8007B6D4FFF7BF
:10168000C1FD401B0228F7D9DDE000BF306C10F02F
:1016900080580AD100200190306C40F080503064B6
:1016A000306C00F080500190019847F20007C4F2BE
:1016B00000073868C00541D4386840F4807038604D
:1016C000FFF7A0FD054600BF3868C00536D4FFF718
:1016D00099FD401B0228F7D9B5E000BFB06800F0C3
:1016E0000C00082803D1706840023FF558AF6068CD
:1016F000B0F5803F07D0B0F5A02F40F08D80306866
:1017000040F480203060306840F4803030608DE0FC
:10171000E068002852D00020C4F247200121016077
:10172000FFF770FD054600BF306880073FF554AFF6
:10173000FFF768FD401B0228F6D984E0A068012865
:1017400005D005284ED1306F40F004003067306F6F
:1017500040F0010030674FE00021C0F8801EFFF725
:1017600051FD0546706F80077FF540AFFFF74AFDDA
:10177000401B0228F6D966E00027C4F24727002064
:101780003866FFF73FFD022D05460BD1306880011A
:101790005ED5FFF737FD401B02284FF00300F5D957
:1017A00055E700BF306880017FF550AFFFF72AFD95
:1017B000401B02284FF00300F4D948E70020C4F290
:1017C000472000210160FFF71DFD054630688007B6
:1017D0007FF509AFFFF716FD401B02284FF003000D
:1017E000F4D934E7316F002821F001013167316FFE
:1017F00021F0040131674DD0FFF704FD054641F2A9
:10180000883700BF306F800756D4FFF7FBFC401BC2
:10181000B842F7D917E000BF3168002821F48031C1
:101820003160316821F4802131604FD0FFF7EAFC4C
:10183000054600BF306880033FF5B7AEFFF7E2FC16
:10184000401B6428F6D9032002B0BDE8F08100BF38
:1018500004F11C052FCD084340EA8210D9034FF64E
:10186000FF729143A1F5803140EA05600843706042
:1018700001203866FFF7C6FC044600BF30688001CF
:101880003FF5E4AEFFF7BEFC001B02284FF003005B
:10189000F4D9DCE6FFF7B6FC054641F2883700BF15
:1018A000306F800708D5FFF7ADFC401BB8424FF002
:1018B0000300F5D9CBE600BFB8F1000F7FF499AE75
:1018C000306C20F08050306493E600BFFFF79AFC44
:1018D000054600BF306880037FF567AEFFF792FCD6
:1018E000401B64284FF00300F4D9B0E6411E0020ED
:1018F000B0EB116F1CBF012070474EF21002CEF208
:10190000000251604EF62351CEF20001F0230B701D
:101910000721906011607047002804BF01207047C4
:1019200010B5044690F83D0028B9002084F83C002A
:10193000204600F021F8242084F83D002068C1688A
:1019400021F40051C160204600F032FC206801699A
:1019500021F490410161416921F02A014161C1688E
:1019600041F40051C16000202021206484F83D1022
:1019700084F83E1010BD000080B586B0016841F2C9
:101980000000C4F20100814202D006B080BD00BF59
:10199000002143F630020191C4F20202536900F5BE
:1019A000704043F010035361536903F01003019337
:1019B000019B0191136843F001031360126802F068
:1019C00001020192019A4FF4C06201920222CDE914
:1019D0000221032104910721059101A9FFF73EFB94
:1019E00006B080BD2DE9F04381B0044690F83D007B
:1019F00020280DD10F4600294FF0010000F0DD80B6
:101A00001646002A00F0D98094F83C00012803D142
:101A1000022001B0BDE8F083012084F83C000020E2
:101A2000206421201D4684F83D00FFF7EBFBA684CF
:101A3000E684A1680646B1F5805F03D120690028DD
:101A400000F01081B8460027002084F83C00E18CAB
:101A50002068002900F0908005F101090DE000BF29
:101A6000B8F1000F28D018F8011B4160E18C013952
:101A7000E184E18C002900F07F8001680906EFD441
:101A8000B9F1000F0AD0FDB1FFF7BCFB801BA842E3
:101A90001AD8206801680906F6D5E1E70168090649
:101AA000DED4016809065CBF01685FEA0161D7D432
:101AB00001680906F2D5D3E737F8021B4FF000089A
:101AC0006FF35F21D1E700BF206850E8030F216862
:101AD00020F4D07041E80302BAB3206850E8030F45
:101AE000216820F4D07041E8030272B3206850E806
:101AF000030F216820F4D07041E803022AB3206864
:101B000050E8030F216820F4D07041E80302002A56
:101B1000DAD11AE0206850E8050F216820F00100B2
:101B200041E80502DAB1206850E8050F216820F08D
:101B3000010041E8050292B1206850E8050F2168D4
:101B400020F0010041E805024AB1206850E8050F85
:101B5000216820F0010041E80502002ADAD12020A6
:101B600084F83D0084F83E00002084F83C00032007
:101B700001B0BDE8F08300BF0168490619D4FDB18A
:101B8000691C0DD10168490613D4016849065CBF80
:101B900001685FEA41610CD401684906F2D508E0AA
:101BA000FFF730FB801BA8420AD820680068400677
:101BB000F6D5202084F83D00002001B0BDE8F08378
:101BC000206850E8030F216820F4D07041E8030238
:101BD000E2B3206850E8030F216820F4D07041E898
:101BE00003029AB3206850E8030F216820F4D070F4
:101BF00041E8030252B3206850E8030F216820F443
:101C0000D07041E80302002ADAD11FE0206850E8D2
:101C1000050F216820F0010041E80502002A9ED04E
:101C2000206850E8050F216820F0010041E8050216
:101C3000002A3FF494AF206850E8050F216820F097
:101C4000010041E80502002A3FF489AF206850E80E
:101C5000050F216820F0010041E80502002AD5D1D6
:101C60007DE700BF4FF00008EEE60000FEE7000051
:101C700083B0002043F630010290C4F202010A68EA
:101C800042F004020A600A6802F004020292029A18
:101C900001900A6842F080020A600A6802F080023D
:101CA0000192019A0090086840F0010008600868FD
:101CB00000F001000090009803B0704780B540F23A
:101CC000C80041F20001C2F20000C4F20101002389
:101CD0004FF00C0C4FF4E13280E80E00C0E9033302
:101CE000C0E905C3C361FFF717FE002808BF80BD28
:101CF000BDE88040FFF798B9FEE70000FEE700006E
:101D00002DE9F0410446018008460D4600F048FBED
:101D10000646284601F0C4F8A178AB224A43520A8D
:101D200002EB4202891A8046E068C9B20A4647F6C9
:101D3000FF7301F00FF9A1784AF6AB27013101FBDF
:101D400007F2520C02EB4202891AE06889B20A4695
:101D5000334601F0FFF8A178E068023101FB07F299
:101D6000520C02EB4202891A89B20A46334601F04C
:101D7000F1F8A17845F2565601FB0772C0F2010650
:101D8000520C02EB420201FB07638A1A551C5A0CE3
:101D900002EB4202891AE0680231C8F100038AB2FC
:101DA000A9B21BB201F0D6F8A178E06801FB076286
:101DB00001FB0773520C5B0C02EB420203EB430383
:101DC0008A1AC91A02324B1C91B29AB2434601F0E8
:101DD000C1F8E568A68828460021002201F0B2F883
:101DE000B4F90420E16802FB00F708460021012253
:101DF00001F0A8F8B4F9061002224843C10BE068CC
:101E000001EBD737002101F09DF8B4F90810032247
:101E1000484307EBD030301A03B22846002101F0C6
:101E200099F8E568E68828460121002201F08AF841
:101E3000B4F90420E16802FB00F708460121012201
:101E400001F080F8B4F9061002224843C10BE068A3
:101E500001EBD737012101F075F8B4F9081003221E
:101E6000484307EBD030301A03B22846012101F075
:101E700071F8E568268928460221002201F062F8FF
:101E8000B4F90420E16802FB00F7084602210122B0
:101E900001F058F8B4F9061002224843C10BE0687B
:101EA00001EBD737022101F04DF8B4F908100322F5
:101EB000484307EBD030301A03B22846022101F024
:101EC00049F8E0680321032247F6FF73BDE8F041BB
:101ED00001F040B88170116841609188C268018149
:101EE00050680021C161816141610161C16081600F
:101EF00041600160704700007047000070B588B015
:101F000004460D460022C069A1690792CDE9052269
:101F1000CDE90322CDE901224068496800922022E0
:101F2000FEF734FB6069B5F90A10426990476069B1
:101F3000D4E90712C0686E46334600F0D7FAD4E9F8
:101F40000701202240684968FEF720FB2069B5F9A7
:101F50000810426990472069D4E90712C0683346E7
:101F600000F0C4FAD4E90701202240684968FEF76E
:101F70000DFBE068B5F9061042699047E068D4E9C6
:101F80000712C068334600F0B1FAD4E907012022F5
:101F900040684968FEF7FAFAA068B5F9041042698A
:101FA0009047A068D4E90712C068334600F09EFA53
:101FB000D4E90701202240684968FEF7E7FA606823
:101FC000B5F90210426990476068D4E90712C06809
:101FD000334600F08BFAD4E90701202240684968B3
:101FE000FEF7D4FA2068B5F90010426990472068DE
:101FF000D4E90712C068334600F078FAD4E9070143
:10200000202240684968FEF7C1FA08B070BD0000A0
:10201000F0B581B0054600681C460E460369097894
:1020200017469847686871780369BA1D9847A86889
:10203000B178036907F10C029847E868F178036901
:1020400007F11202984728693179036907F11802EC
:10205000984768697179036907F11E029847A86972
:1020600021464068202201B0BDE8F040FEF78EBA5C
:102070002DE9F041044617A0FEF772FAE0690188E5
:10208000002908BFBDE8F081002714A50FF254080D
:10209000002600BFB9B2B2B200F054FF00F062FFF8
:1020A00010EE100A01F094FC024628460B46FEF79B
:1020B000AFF9E06901360188B2B28A42EAD34046FC
:1020C000FEF74EFAE06901370188BAB28A42DFD3DF
:1020D000BDE8F08145504D5F663A0D00252B2E344A
:1020E000662000000D00000070470000FFF790B868
:1020F000B0B592B0002443F64000CDE90A44CDE9E2
:1021000008440594CDE90344CDE901440094C4F2A8
:1021100002000168022541F080510160006800F072
:1021200080500090009847F200000094C4F2000034
:10213000016841F440410160006800F440400090B3
:102140000098012006904FF4803007904FF48000F3
:102150000D900C200E906020CDE90F050420119009
:1021600006A80C95FFF708FA20B1EFF3108072B6BD
:10217000FEE700BF0F20CDE901054FF48050CDE907
:10218000040401A803210394FFF7E8F820B1EFF35A
:10219000108072B6FEE700BF12B0B0BD4EF6885098
:1021A000CEF20000016841F4700101607047000048
:1021B00010B504460068D4E902C22369016921F41C
:1021C000405111430161626943EA0C01E369114323
:1021D000C268194349F20C639A431143C1604169D3
:1021E000A26921F4407141F20043114340F480623E
:1021F000C4F201039A42416102D1FFF773F901E091
:10220000FFF75CF9E16963681922B1F5004FA0FBA3
:10221000020123D15A00DB0FFEF782F848F21F516A
:10222000C5F2EB11A0FB01235A094FF69C73C0F6CF
:10223000FF7303F1805302FB0300322303EBC00062
:10224000A0FB01014FF4F87000EA111000EB02103E
:10225000C1F3421108442168886010BD9A009B0FA9
:10226000FEF75EF848F21F51C5F2EB11A0FB012307
:102270005A094FF69C73C0F6FF7302FB030032232A
:1022800003EB0010A0FB0101F02000EA511000EB6D
:102290000210C1F3431108442168886010BD00009A
:1022A0002DE9F041B6B04FF48170359040F2021044
:1022B000C0F2011043F678310DF188083490C0F671
:1022C000000140464822FEF7A6F9224813AF1290BB
:1022D00020A0051D2ECD00F1140E2EC700F12405FF
:1022E0009EE81050066A2ECD1794D0E90D47C06BBA
:1022F000CDE91A611CA92CC109AD219028462421E1
:10230000CDE918CECDE91F47FEF7D9F90020CDE978
:102310000700CDE90500CDE90300CDE90100404605
:102320002946122200F062F801AC12A821461022C0
:1023300000F05CF800F072FE40F27001C2F20001A1
:10234000476A086034A92A462346B84736B0BDE834
:10235000F08100BF000080BF00000000000000000E
:102360000534513F00000000000000000000803FE5
:10237000567D6E3E000000000000803F000000001F
:10238000499D803D000000000000000000000000AA
:102390000000803FFEE70000FEE7000000F004BF01
:1023A00000F500510AB2002A48BFA0F5C0414FF421
:1023B000FC4208B202EA412143F6D8328009C0F655
:1023C000000202EB400332F91000B3F90220C1F51C
:1023D000004358430023C7F6FF73184012FB010067
:1023E0006FF0010101EAD03000B2704710B5002A49
:1023F00074D012F0030EA2F1010C35D090ED001A4A
:102400009FED370ABEF1010F21EE001ABDEEC11A91
:1024100011EE103A03F30F040B4623F8024B03D1DD
:102420000430624619461FE090ED011ABEF1020F1A
:1024300021EE001ABDEEC11A11EE103A03F30F039C
:102440004B8003D108300431023A0DE090ED021ABE
:102450000C3021EE000ABDEEC00A10EE103A03F374
:102460000F038B800631033ABCF1030F38BF10BD58
:102470009FED1B0AA0F11003A1F1080093ED041ACF
:1024800093ED052A21EE001ABDEEC11A93ED063A2E
:1024900011EE101A22EE001A01F30F01BDEEC11A5F
:1024A00093ED074A20F8081F11EE101A23EE001AC8
:1024B00001F30F01BDEEC11A418011EE101A24EE96
:1024C000001A01F30F01BDEEC11A818011EE101A3E
:1024D000103301F30F01043AC180CFD110BD00BF0A
:1024E0000000004701804280436070472DE9F04FB3
:1024F0008FB09146024600884F880C905088002F7C
:102500000E920A970B93069000F01B81B1F800C061
:102510000A98D1F80480A0F1010EBCF1010F0CF073
:102520000101CDF82090079120D100270798DDF810
:1025300020900028069800F004810A9B0B9A13F063
:10254000030102EB470400F0C580424632F8023B2B
:102550000129238004EB4C0440F0C280904672466F
:10256000BEF1030F80F0D880EBE000BF811E0B9D11
:102570002CF0010900F0030B0D91C11E4FEA4C0431
:102580000027099103E000BF02374F45CED0BBF1D1
:10259000000F05EB470A0FD0464636F8021BBBF189
:1025A000010FAAF800100AEB4C0A0BD1B046724694
:1025B000BEF1030F26D23DE00246BEF1030F21D249
:1025C00038E000BFB8F80210BBF1020FAAF8001003
:1025D0000AEB4C0A08D108F104060D9AB046BEF188
:1025E000030F0FD226E000BFB8F8041008F106066A
:1025F000099AAAF800100AEB4C0AB046BEF1030F84
:1026000018D300BF38F8081B0AEB0403AAF800101F
:1026100038F8061C1E192AF8041038F8041C043A6D
:10262000195338F8021C06EB040303EB040A315378
:10263000E8D1464647F00101BBF1000F05EB41022E
:102640000ED0B04638F8021BBBF1010F118002EB2F
:102650004C020BD146467146BEF1030F22D293E7DE
:102660000146BEF1030F1DD28EE700BF7188BBF19A
:10267000020F118002EB4C0208D106F104080D99FB
:102680004646BEF1030F0DD27EE700BFB18806F1CA
:1026900006081180099902EB4C024646BEF1030F71
:1026A000FFF472AF36F8083B1519138036F8063C74
:1026B0000439135336F8042C05EB04032A5336F877
:1026C000022C03EB04051A5305EB0402EAD10B9D1F
:1026D000B04659E71A46BEF1030F1DD231E000BFE4
:1026E000B8F802200229228004EB4C0408D10A9990
:1026F00008F104088A1EBEF1030F0DD221E000BFCD
:10270000B8F8041008F1060821800A9904EB4C047B
:10271000CA1EBEF1030F14D3A8F108014FEA4C03FF
:1027200031F8087FE61827804F88F518E7528F8820
:10273000043AF752CF8805EB030606EB0304EF5289
:10274000EED1D9F804A0042800F0030E80F08A81AD
:10275000BEF1000F00F0E2810E980A9A40680B99D2
:102760000590501E079002F0030001EB4E06099001
:1027700006EB4E0C901E02900CEB4E000190D01E0A
:1027800000900EEB4E004FEA4E054FEACE0B4FEA9B
:1027900040084FEA8E090024CDE9036C0E950AE04B
:1027A000039E0C980D9C01380C900698DDF810C023
:1027B000044400F04C8209980D940028059800EB21
:1027C00044070DD00B99B7F90000B1F90020BEF114
:1027D000010F02FB00F008970AD1C0131EE000BFF2
:1027E000DDE90AC03C4607990329DAD38EE000BF31
:1027F000B7F90220B1F90230C6175343C21846EBAD
:10280000E370BEF1020F05D0B7F90430B1F90460EE
:10281000C6FB8320D20B039E42EA4040099900F395
:102820000F025046012920F8022B09D1DDF81CC007
:10283000089C8246304607990329B2D366E000BF60
:10284000089FB6F90020B7F90000BEF1010F02FBA6
:1028500000F001D1C01316E0B7F90220B6F902303A
:1028600031465343C617C21846EBE370BEF1020F60
:1028700005D0B7F90430B1F90460C6FB8320D20B50
:1028800042EA40400E46099900F30F000229AAF8D7
:1028900002000BD16046DDF808C0089C0AF1040A6A
:1028A00007990329FFF47DAF30E000BF0899BCF918
:1028B0000020B1F90000BEF1010F02FB00F001D1D0
:1028C000C01315E0B1F90220BCF90230C61753431A
:1028D000C21846EBE370BEF1020F05D0B1F9043027
:1028E000BCF90460C6FB8320D20B039E42EA404041
:1028F00000F30F00AAF80400DDE900C00C460AF15D
:10290000060A07990329FFF44CAF00BF061D0BE030
:10291000C01300F30F00AAF806000AF1080ABCF180
:10292000040C5E443FF43CAF304630F9042DB4F95A
:102930000030BEF1010F03FB02F201D1D21320E0FF
:10294000B4F9023036F9027C5D465F43CB46C1469E
:102950004FEAE278D31948EBE772BEF1020F03D1D8
:10296000DB0B43EA424208E0B4F90470B6F9001008
:10297000C1FB8732D90B41EA4242C846D946AB4631
:102980000E9D02F30F01AAF80010B4F9001030F9FF
:102990001E20BEF1010F01FB02F201D1D21314E09F
:1029A0007119B4F9023031F9021CD7175943531881
:1029B00047EBE172BEF1020F04D0B4F90410775F67
:1029C000C7FB8132D90B41EA424202F30F0128448E
:1029D000AAF80210B4F90010425FBEF1010F01FB2A
:1029E00002F201D1D21316E006EB0901B4F902306C
:1029F00031F9021CD7175943531847EBE172BEF166
:102A0000020F05D0B4F9041036F90970C7FB813202
:102A1000D90B41EA424202F30F012844AAF80410FC
:102A2000B4F9001030F91E00BEF1010F01FB00F0F7
:102A30003FF46EAF06EB0801B4F9022031F9021C35
:102A4000C3175143421843EBE170BEF1020F05D0AA
:102A5000B4F9041036F90830C3FB8120D10B41EAE8
:102A6000404056E781084FEAC10848EA4E0140005D
:102A70004FF000090D91099007E000BF0C98013854
:102A80000C900998814400F0E280DDE90ABC0CE07A
:102A9000D00B40EA44410D98604401F30F012AF83D
:102AA000021BBBF1010B8446E8D00E98002541685B
:102AB00000224944002400BF4B190CEB050748597C
:102AC0005CF8056008355B687F68C0FBC624A845D4
:102AD000C3FBC724F0D1BEF1000F0CEB050019D0E9
:102AE0004B5FB0F90060BEF1010FC6FB8324CFD06D
:102AF0002944B1F90230B0F90250BEF1020FC5FB12
:102B00008324C5D0B1F90410B0F90400C0FB8124BE
:102B1000BEE700BFD10B41EA4441BEE70A990C9BD6
:102B2000002000F30F004E1E13F00302A3F1010377
:102B30000AD011F003070DD055460C46012F25F899
:102B4000020B11D131461CE00C46032BC0F07F80F4
:102B500082E000BF0C46032E16D2012A21D10C932D
:102B6000AA46032B73D377E0022FAAF8020003D101
:102B70000AF10405A11E04E00AF10605E11EAAF807
:102B80000400AA46032EE8D32AF8080B04392AF8D1
:102B9000060C2AF8040C2AF8020CF5D15546012A35
:102BA000DDD03FB1AA46012F2AF8020B04D13146ED
:102BB0000EE000BF21460CE0022F688004D105F131
:102BC000040AA11E04E000BF05F1060AE11EA88068
:102BD0005546032E0BD300BF25F8080B043925F802
:102BE000060C25F8040C25F8020CF5D1AA46022A99
:102BF00002D10C99023927E047B15146012F21F843
:102C0000020B05D18A4631460FE000BF21460CE099
:102C1000022FAAF8020003D10AF1040AA11E04E05F
:102C2000AAF804000AF1060AE11E032E0AD300BF27
:102C30002AF8080B04392AF8060C2AF8040C2AF89A
:102C4000020CF5D10C9903390C91032B04D200200E
:102C50000FB0BDE8F08F00BF04F00303A4F1020C35
:102C6000E51E214604E000BF0C9904390C91EED01A
:102C700053B15746012B27F8020B11D13146BA4602
:102C8000032E27D204E000BF2146032E22D200BF2C
:102C90006BB33946012B21F8020B0DD132463AE0D5
:102CA000022BAAF802000DD10AF104076146BA46C8
:102CB000032E0FD2ECE700BF022B788028D1391DFC
:102CC000624628E00AF106072946AAF80400BA4637
:102CD000032EDDD32AF8080B04392AF8060C2AF84B
:102CE000040C2AF8020CF5D15746002BD1D122460C
:102CF000032E13D2FBB10F46012B27F8020B01D193
:102D000032462EE0022B488028D10F1D624628E073
:102D1000B91D2A46B8800F46032EEBD327F8080BBF
:102D2000043A27F8060C27F8040C27F8020CF5D112
:102D30003946002BDFD12246032E15D20BB3BA46FB
:102D4000012B2AF8020B01D1314623E0022B7880B7
:102D50001CD107F1040A61461CE000BF8F1D2A4602
:102D600088803946032EE9D321F8080B043A21F86C
:102D7000060C21F8040C21F8020CF5D10F46002BAB
:102D8000DDD12146032E09D26EE700BF07F1060A06
:102D90002946B8805746032EFFF466AF27F8080B84
:102DA000043927F8060C27F8040C27F8020CF5D193
:102DB000BA4659E710B5002A6ED012F00303A2F10B
:102DC000010C11D086463EF9024B9FED340A01EE0C
:102DD000104AB8EEC11A21EE001A012B81ED001A3B
:102DE00004D10431624621E086461FE0B0F902407A
:102DF000022B01EE104AB8EEC11A21EE001A81ED45
:102E0000011A05D100F1040E0831023A0EE000BFAC
:102E1000B0F9043000F1060E01EE103AB8EEC11A16
:102E200021EE000A81ED020A0C31033ABCF1030FD6
:102E300038BF10BD9FED190AAEF10800103900BF70
:102E400030F9083F043A01EE103AB8EEC11AB0F971
:102E5000023021EE001A81ED041A01EE103AB0F9A9
:102E60000440B8EEC11A21EE001A81ED051A01EEF8
:102E7000104AB0F906C0B8EEC11A21EE001A81ED71
:102E8000061A01EE10CAB8EEC11A21EE001A81ED41
:102E9000071A01F11001D3D110BD00BF00000038A6
:102EA0004FF4FC42C0F3881102EA402043F6D832C6
:102EB000C0F6000202EB410332F91110B3F902200F
:102EC000C0F5004359430023C7F6FF73194012FBB6
:102ED00000106FF0010101EAD03000B2704700002D
:102EE0004FF0FF307047000000F05EB986B0002060
:102EF0000590CDE903004FF020200290CDE90000BD
:102F0000FEF794F9FFF7F4F8FEF7B2FEFEF7D6FEEF
:102F1000FFF7C6F940F27004C2F20004206803A96A
:102F2000826A90472068C16A884720686946826A39
:102F300090472068C16A88474FF47A70FEF77AF8A4
:102F4000FAE700004388406803FB012130F91100D3
:102F500070470000B0F802C040680CFB012120F867
:102F60001130704780B582B0ADF806000DF1060053
:102F700069460122FFF71EFF9DED000A02B080BDE9
:102F800010B51820FDF79DF9044698B141F6D560BB
:102F900041F60151C0F60000C0F60001C4E9040189
:102FA0000420042100F0A6F8E06010A0FDF7D8FA94
:102FB000204610BD02A0FDF7D3FA204610BD00BF89
:102FC0005741524E3A20504F455F466F726D756CB7
:102FD0006120696E697469616C697A6174696F6E88
:102FE000206661696C65642E0D000000494E464FF5
:102FF0003A20504F455F466F726D756C6120696E67
:10300000697469616C697A6174696F6E2073756344
:103010006365656465642E0D0000000010B5302006
:10302000FDF74FF90446A8B342F2110041F6FD61E5
:10303000C0F60000C0F6000142F2710204F1240360
:10304000C0F6000207C30420042100F053F8A06179
:103050000420042100F04EF8E0610420042100F077
:1030600049F82062FFF78CFF2060FFF789FF60605E
:10307000FFF786FFA060FFF783FFE060FFF780FFA8
:103080002061FFF77DFF60610FA0FDF769FA204620
:1030900010BD00BF02A0FDF763FA204610BD00BFBF
:1030A0005741524E3A20526F626F746963732069C0
:1030B0006E697469616C697A6174696F6E206661AA
:1030C000696C65642E0D0000494E464F3A20526FE0
:1030D000626F7469637320696E697469616C697A7F
:1030E0006174696F6E207375636365656465642ED2
:1030F0000D00000070B5064608200D46FDF7E1F80A
:10310000044606FB05F041000120FDF7C6F87CB13E
:10311000034698B1204631462A46FFF7E3F943F6C5
:10312000DA70C0F60000FDF71BFA204670BD00BF44
:10313000002405A0FDF714FA204670BD00240EA05F
:10314000FDF70EFA204670BD5741524E3A204D61B0
:1031500074726978206D656D6F727920616C6C6F27
:10316000636174696F6E206661696C65642E287096
:103170004F626A290D0000005741524E3A204D61BE
:1031800074726978206D656D6F727920616C6C6FF7
:10319000636174696F6E206661696C65642E287066
:1031A00044617461290D000080B582B0019040F245
:1031B000C800C2F2000001A901224FF6FF73FEF71A
:1031C00011FC019802B080BD5FEA400C08BF91F08D
:1031D000000F4FEA8C234FEAC12243EA51514FEAD4
:1031E0001C5018BF00F5F0404FEA300018BF41F006
:1031F00000415FEA6C5C00F02980BCF1FF3F08BF32
:1032000040F080407047130C06BF12044FF0100CC2
:103210004FF0000C130E04BF12020CF1080C130F38
:1032200004BF12010CF1040C930F04BF92000CF1C7
:10323000020CD30F04BF52000CF1010C11464FF0E9
:103240000002A0F11F00A0EB0C00704711F0004F2E
:1032500008BF704731F000413FF4D5AF0B0C06BFFB
:1032600009044FF0100C4FF0000C0B0E04BF0902C4
:103270000CF1080C0B0F04BF09010CF1040C8B0FAF
:1032800004BF89000CF1020CCB0F04BF49000CF104
:10329000010CCCF1200322FA03F341EA030102FA04
:1032A0000CF2A0EB0C0000F10100704723F07F4707
:1032B00020F07F4C80EA030000F00040ACEB0703F5
:1032C00003F57C5303F1FF032DE9804909B44FEA6C
:1032D000144324EA03484FEA154B25EA0B4E0FF23C
:1032E000042606EB13273E7803FB0667C7F50007A5
:1032F00007FB06F64FEAD64606F102064FEA5437B8
:1033000007FB066CCCF1005C4FEA1C472CEA074C2B
:103310000CFB06F507FB06F404EB15464FEA961680
:1033200049085FEA320234BF00204FF000404FEA04
:10333000D13706FB07FC4FEA1C4C0CFB0BF7D21BEA
:1033400003FB0CF761EB07010CFB0EF7B0EB07403A
:1033500072EB17420CFB08F734BFA2EB0742B2EB4B
:10336000074261EB17414FEA0C444FEA910706FB15
:1033700007FC4FEA1C4C0CFB0BF7B0EBC74072EBA1
:10338000573203FB0CF734BFA2EBC742B2EBC74284
:1033900061EB57310CFB0EF7B0EBC70072EB5772C5
:1033A0000CFB08F734BFA2EBC702B2EBC70261EB1C
:1033B00057714FEA816141EA92114FEA826242EA13
:1033C00090124FEA806004EBCC04039F4FEAD137A0
:1033D00006FB07FC4FEA1C4C0CFB0BF7D21B03FB54
:1033E0000CF761EB07010CFB0EF7B0EB074072EB3B
:1033F00017420CFB08F734BFA2EB0742B2EB0742BF
:1034000061EB17414FEA8C5504EB9C244FEA91077E
:1034100006FB07FC4FEA1C4C0CFB0BF7B0EBC7405C
:1034200072EB573203FB0CF734BFA2EBC742B2EB8F
:10343000C74261EB57310CFB0EF7B0EBC70072EBE4
:1034400057720CFB08F734BFA2EBC702B2EBC702FE
:1034500061EB57714FEA816141EA92114FEA826252
:1034600042EA90124FEA806015EB4C2544F10004CB
:103470004FEAD13706FB07FC4FEA1C4C0CFB0BF75D
:10348000D21B03FB0CF761EB07010CFB0EF7B0EB53
:10349000074072EB17420CFB08F734BFA2EB074260
:1034A000B2EB074261EB17414FEA813141EA9241A9
:1034B0004FEA823242EA90424FEA80304FEA0C767D
:1034C00015EB1C1544F1000448EA03434EEA0B488F
:1034D0004FF0000EB2EB080C71EB030724BF6246FD
:1034E00039464EEB0E0E4FF0000B00185241494189
:1034F0004BEB0B0BB2EB080C71EB03077BF1000BF2
:1035000024BF624639464EEB0E0E4FF0000B0018FA
:10351000524149414BEB0B0BB2EB080C71EB03072B
:103520007BF1000B24BF624639464EEB0E0E51EA8A
:10353000020718BF46F0010616EB0E7655F10002A1
:1035400054F1000103D5BDE88901BDE80088BDE85C
:103550008901BDE80048B619524141EB0101A3F1D0
:103560000103704780807F7E7D7C7B7A79787776D7
:1035700076757473727171706F6E6E6D6C6C6B6A50
:103580006A696868676666656464636362616160EE
:10359000605F5F5E5E5D5D5C5C5B5B5A5A5959586B
:1035A00058575756565555555454535352525251D5
:1035B000515050504F4F4F4E4E4D4D4D4C4C4C4B2B
:1035C0004B4B4A4A4A494949484848474747474672
:1035D00046464545454444444443434343424242AE
:1035E000424141419C46002B30D477002BD04FEA1A
:1035F00037071CB503B44FF010004FF01001BAF1BB
:10360000000F06D0BCF1000FDCBF40F0080040F016
:1036100008014FF000000FBCBDE810400BF1010B9A
:10362000BBF1010F08BF5FEA170722BF12F10102C9
:1036300011F101014FF0004143F1000300F000409F
:1036400043EA00007047F9D35708D0E746EA064638
:103650004FEA164613F1400F1FDD13F1200FDFBFB5
:1036600016430A46002120335B42BED0C3F1200737
:1036700046EA06464FEA164602FA07F746EA070602
:1036800022FA03F2C3F1200701FA07F742EA070220
:1036900021FA03F14FF00003A7E746EA020646EAE3
:1036A00006464FEA164646EA0106BCBF46EA06460B
:1036B000360C4FF000034FF000024FF0000194E78A
:1036C0002DE9804C70B49A46934691E8380007C8BB
:1036D00031EA400C48BF34EA430C03D5FFF7E6FD5E
:1036E000FFF780FFF0BCBDE8008C2DE9804C70B482
:1036F0009A46934691E8380007C810F0804F08BFFB
:1037000013F0804F03D100F005F8FFF76BFFF0BC1A
:10371000BDE8008C20F07F4723F07F4C80EA030057
:1037200000F0004007EB0C03A3F57C53A3F1FE036C
:1037300092F0000F00F0B38095F0000F00F077805A
:103740002DE901494FEA114021EA00484FEA1446A9
:1037500024EA064700FB06FC08FB06F607FB08F810
:1037600018EB06484CEB164C00FB07F718EB074824
:103770004CEB17404FEA124B22EA0B4E4FEA15462C
:1037800025EA06470BFB06FC0EFB06F607FB0EFEC2
:103790001EEB064E4CEB164C0BFB07F71EEB074ED1
:1037A0004CEB174B18EB0B0840F1000018EB0E0B1D
:1037B00058EB000840F100008F1A4FF000014FF065
:1037C00000063CBFC943661B14BFB5EB040C0021C7
:1037D0003CBFC943F61B4FEA174427EA04454FEAAA
:1037E0001C472CEA074C04FB076205FB07F70CFBA0
:1037F00005F616EB074642EB174204FB0CFC16EBF2
:103800000C4642EB1C421BEB060658EB0202414100
:103810004EEA8E0E46EA9E0601D5BDE80189B6192C
:10382000524141EB0101A3F10103BDE801894FEAD7
:10383000144524EA05464FEA114721EA074C05FBE7
:1038400007F406FB07F70CFB06F111EB074144EB0D
:10385000174405FB0CFC11EB0C4144EB1C444FEAF4
:10386000124722EA074C05FB07F206FB07F70CFBA1
:1038700006F616EB074642EB174205FB0CFC16EB6F
:103880000C4642EB1C456A1854F1000148BF7047D2
:10389000B619524141EB0101A3F10103704795F0C4
:1038A000000F37D04FEA114221EA02464FEA14478F
:1038B00024EA074C02FB07F106FB07F70CFB06F4B2
:1038C00014EB074441EB174102FB0CFC14EB0C44D6
:1038D00041EB1C414FEA154725EA074C02FB07F56F
:1038E00006FB07F70CFB06F616EB074645EB1745FC
:1038F00002FB0CFC16EB0C4645EB1C42121951F175
:10390000000148BF7047B619524141EB0101A3F1D4
:10391000010370474FEA144524EA05464FEA114770
:1039200021EA074C05FB07F106FB07F70CFB06F243
:1039300012EB074241EB174105FB0CFC12EB0C426A
:1039400051EB1C414FF0000648BF7047921841EB05
:103950000101A3F10103704703B4019841000098ED
:1039600050EAC12018BF04204A0D18BF40F00100E2
:1039700040F2FF72B2EB515F08BF40F00200012835
:1039800008BF052002B0704730380A2801D2012054
:10399000704700207047000010B500290AD0087851
:1039A000002807D005487844FDF7E2FA002801D046
:1039B000002010BD0248784410BD000082060000BF
:1039C0007A0600000808A0F500114FEA310170479F
:1039D00043004FEAD30C4FEA3C0C43401FBF400763
:1039E0000CF1605113F0FE4F70471CF0006F03D1D3
:1039F0000CF00041002070470CF0004343EA507087
:103A000040EACC0010B500F00EF800BF00000092B4
:103A10004FEA0001FFF7D6BF4FF00041A1F50021AA
:103A20004FF0000070470EF1020E2EF0030E5EF80C
:103A3000044B244204D44FEA4102B2F17F4F11D823
:103A40004FEA4003B3F17F4F0CD80ED14FEAD07C40
:103A50000CEB4C0C0CF1020CB2F17F4F08BF4CEB9D
:103A6000D17C04E04FF0080C01E04FEAD17C0CEB74
:103A70004C0324FA03F404F00704B4F1040C06D256
:103A80000EEB840CBDE810404CF0010C6047DFE801
:103A90000CF0070802024FF00040A0F5800010BDB6
:103AA0000846420018BFD2F1807288BF00F0004083
:103AB00010BDF1EE100A4FF6FF71C0F2C03120EADE
:103AC000010040F04070E1EE100A7047FCF773BF50
:103AD00004000008000000000000000200010000D7
:103AE0001000000002400000000000A000000000E4
:103AF00005400000000000C8000000000C4000006D
:103B00000000409C00000000194000000020BCBEE6
:103B10000000000034400000BFC91B8E00000004FC
:103B2000B5400000504BCFD06607E2CF0100000047
:103B30006C4100003E8251AADFEEA7340100000074
:103B4000D9420000DCB5A0E23A301F97FFFFFFFF2B
:103B5000B4450000FD25A0C8E9A3C14FFFFFFFFF4A
:103B6000FF3F00000000008000000000FF3F000059
:103B700000000080000000000000000000000000C5
:103B80006666263E00000000000000006666263ED5
:103B90009A99D93E000000006666263E0534513FE2
:103BA000000000006666263E0534513FCC7F083E8B
:103BB0006666263E0534513FCC7F083E499D803DD8
:103BC00000000000000000000102030406070809CD
:103BD0000000000001020304000092012403B60467
:103BE0004806D9076B09FB0A8C0C1C0EAB0F3A1167
:103BF000C8125514E2156E17F918831A0C1C931D80
:103C00001A1F9F202422A7232825A8262728A42975
:103C10001F2B992C112E872FFC306E32DF334E353F
:103C2000BA3625388D39F33A573CB83D173F7440C2
:103C3000CE4126437B44CD451D476A48B449FB4AE3
:103C4000404C814DC04EFB4F345169529B53CA5476
:103C5000F6551E5743586459825A9D5BB45CC85D43
:103C6000D75EE45FEC60F161F262EF63E964DE6508
:103C7000D066BD67A7688C696E6A4B6B246CF96C63
:103C8000CA6D976E5F6F2370E3709E7155720873F3
:103C9000B67360740575A6754276D9766C77FB7736
:103CA00085780A798A79067A7D7AEF7A5D7BC67B98
:103CB0002A7C897CE47C3A7D8A7DD67D1E7E607E6E
:103CC0009D7ED67E0A7F387F627F877FA77FC27FF7
:103CD000D97FEA7FF67FFE7FFF7FFE7FF67FEA7F58
:103CE000D97FC27FA77F877F627F387F0A7FD67E9A
:103CF0009D7E607E1E7ED67D8A7D3A7DE47C897CB9
:103D00002A7CC67B5D7BEF7A7D7A067A8A790A798E
:103D10008578FB776C77D9764276A67505756074E1
:103D2000B673087355729E71E37023705F6F976E60
:103D3000CA6DF96C246C4B6B6E6A8C69A768BD67A1
:103D4000D066DE65E964EF63F262F161EC60E45F26
:103D5000D75EC85DB45C9D5B825A645943581E5758
:103D6000F655CA549B5369523451FB4FC04E814D96
:103D7000404CFB4AB4496A481D47CD457B44264325
:103D8000CE417440173FB83D573CF33A8D39253842
:103D9000BA364E35DF336E32FC30872F112E992C18
:103DA0001F2BA4292728A8262825A72324229F20C3
:103DB0001A1F931D0C1C831AF9186E17E21555145F
:103DC000C8123A11AB0F1C0E8C0CFB0A6B09D907F9
:103DD0004806B6042403920100006EFEDCFC4AFB98
:103DE000B8F927F895F605F574F3E4F155F0C6EE49
:103DF00038EDABEB1EEA92E807E77DE5F4E36DE210
:103E0000E6E061DFDCDD59DCD8DA58D9D9D75CD6F9
:103E1000E1D467D3EFD179D004CF92CD21CCB2CA0F
:103E200046C9DBC773C60DC5A9C348C2E9C08CBF6C
:103E300032BEDABC85BB33BAE3B896B74CB605B52B
:103E4000C0B37FB240B105B0CCAE97AD65AC36AB78
:103E50000AAAE2A8BDA79CA67EA563A44CA338A28B
:103E600029A11CA0149F0F9E0E9D119C179B229AA6
:103E700030994398599774969295B594DC9307932B
:103E800036926991A190DD8F1D8F628EAB8DF88C7B
:103E90004A8CA08BFB8A5A8ABE8927899488058818
:103EA0007B87F6867686FA8583851185A3843A8496
:103EB000D68377831C83C68276822A82E281A081A0
:103EC00063812A81F680C8809E80798059803E80F7
:103ED000278016800A800280008002800A80168077
:103EE00027803E80598079809E80C880F6802A8114
:103EF0006381A081E2812A827682C6821C837783D5
:103F0000D6833A84A38411858385FA857686F686DE
:103F10007B87058894882789BE895A8AFB8AA08B6B
:103F20004A8CF88CAB8D628E1D8FDD8FA1906991CC
:103F300036920793DC93B59492957496599743986B
:103F40003099229A179B119C0E9D0F9E149F1CA0C6
:103F500029A138A24CA363A47EA59CA6BDA7E2A874
:103F60000AAA36AB65AC97ADCCAE05B040B17FB216
:103F7000C0B305B54CB696B7E3B833BA85BBDABC67
:103F800032BE8CBFE9C048C2A9C30DC573C6DBC72A
:103F900046C9B2CA21CC92CD04CF79D0EFD167D334
:103FA000E1D45CD6D9D758D9D8DA59DCDCDD61DF69
:103FB000E6E06DE2F4E37DE507E792E81EEAABEBAD
:103FC00038EDC6EE55F0E4F174F305F595F627F8F3
:103FD000B8F94AFBDCFC6EFE0000494E464F3A2021
:103FE0004D6174726978206D656D6F727920616CB6
:103FF0006C6F636174696F6E20737563636565646C
:1040000065642E0D000000004840000800000020FC
:1040100010000000D40100085840000810000020E3
:1040200000510000F00100081C00000043000000E7
:10403000F8FFFFFF0C0000000E0000000F00000062
:104040002E00000000000000010000001000000031
:084050000024F4000000000050
:040000050800019955
:00000001FF
